:020000040800F2
:1000000000800120F95C0008455D000855360008B5
:100010005D360008653600086D36000800000000F7
:100020000000000000000000000000004D45000836
:10003000455D000800000000E5450008F5450008A2
:10004000455D0008455D0008455D0008455D000808
:10005000455D0008455D0008455D0008455D0008F8
:10006000455D0008455D0008455D0008455D0008E8
:10007000455D0008455D0008455D0008455D0008D8
:10008000455D0008455D0008455D00080000000072
:10009000000000000000000000000000455D0008B6
:1000A000455D0008455D0008455D0008455D0008A8
:1000B000455D0008455D0008455D0008455D000898
:1000C000455D0008455D0008455D0008455D000888
:1000D000455D0008455D0008455D00080000000022
:1000E000455D0008455D0008455D00080000000012
:1000F000000000000000000000000000455D000856
:1001000000000000455D0008455D0008455D0008F1
:1001100000000000000000000000000000000000DF
:10012000455D0008455D0008455D0008455D000827
:10013000455D000800000000000000000000000015
:10014000000000000000000000000000455D000805
:10015000455D0008455D0008455D0008455D0008F7
:10016000455D0008455D000800000000000000003B
:10017000000000000000000000000000000000007F
:1001800000000000455D00080000000000000000C5
:10019000455D00080348044B834202D0034B03B182
:1001A00018477047400A0020400A00200000000065
:1001B0000548064B1B1AD90F01EBA301491002D0C9
:1001C000034B03B118477047400A0020400A002043
:1001D0000000000010B5064C237843B9FFF7DAFFA2
:1001E000044B13B10448AFF300800123237010BD0A
:1001F000400A002000000000F401020808B5054B89
:100200001BB105490548AFF30080BDE80840FFF782
:10021000CFBF00BF00000000440A0020F401020824
:10022000A3F5803A704700BF174B002B08BF134B54
:100230009D46FFF7F5FF00218B460F461348144AF1
:10024000121A12F065F90E4B002B00D098470D4B97
:10025000002B00D098470020002104000D000D481D
:10026000002802D00C4803F01FFE12F0C9F920004C
:10027000290004F04FF803F0A3FF00BF00000800BE
:10028000000000007142000800800120400A0020A8
:10029000402E0020A93E000800000000F0B5002319
:1002A00084681D4601269C4200D1F0BD426852F888
:1002B0002320916857680131B942916024BF1673B9
:1002C00095600133EFE7034607C983E807007047ED
:1002D000704710B4426881685410034601EB620015
:1002E000D20748BF0A591B685DF8044B48BFD35872
:1002F0001847027B22B103680022DB6802731847AB
:1003000070470000034AC0E90021002282600273A6
:10031000704700BF707901087047C36810B5044684
:100320000BB19B689847204610BD000038B50546C4
:10033000064B45F8283B044602F017FB2846FFF71A
:10034000ECFF204602F0B0FB204638BD0C7E0108D1
:1003500038B50546054B45F8103B0446284602F0E3
:1003600004FB2846FFF7E2FF204638BD88790108E4
:1003700010B50446FFF7ECFF2046502103F06AFF5A
:10038000204610BD10B50446FFF7D0FF204640219F
:1003900003F060FF204610BD70B52DED028B08EE16
:1003A000103A1A4B826000F1100588B0C0E90031A4
:1003B0000446284602F05CFA1022154B154E0093B5
:1003C0000DEB02000021CDE90114039612F0A0F814
:1003D000694604A8FFF777FFDFED0F7A079668EE0E
:1003E000277A17EE900A16F077F902460B46284650
:1003F00004A902F09EFA04A8FFF78FFF6846FFF7F2
:100400008CFF204608B0BDEC028B70BD88790108D6
:100410009D02000890790108002474497047034642
:1004200007C983E807007047704710B442688168C5
:100430005410034601EB6200D20748BF0A591B68FB
:100440005DF8044B48BFD358184710B54FF4887176
:10045000044603F0FFFE204610BD70B5044604B903
:1004600070BDE068FFF7F9FF636BA56804F1100643
:1004700004F128000BB19B689847304607F0DEFE78
:100480002046382103F0E6FE2C46E8E710B5064B7F
:1004900003600446D0F84003FFF7DFFF2046FFF774
:1004A0003BFF204610BD00BF307A010810B504465E
:1004B000FFF7ECFF20464FF4547103F0CBFE2046CB
:1004C00010BD000000F1080373B5044603600D463B
:1004D00011B90F4807F05AFE084614F031FC0F28F6
:1004E00005EB0006019007D9002201A9204607F07C
:1004F0007DFE019B2060A36032462946206807F0FC
:10050000AFFE019B226863600021D15402B070BD30
:100510009C79010838B5044672B6FF25206902F0BF
:100520007CF878B3D4F81831D4F81C110133B3FB3C
:10053000F5F2C2EB02229B1A8B4223D0206901F014
:10054000A3FFD4F81831D4F81C110133B3FBF5F232
:10055000C2EB02229B1A8B42E0D0D4F8183123441C
:10056000C0B21876D4F818310133B3FBF5F2C2EB00
:1005700002229B1AC4F81831D4F820310133C4F890
:100580002031CBE762B638BDD0F8081110B5013183
:10059000D0F804410346FF22B1FBF2F0C0EB00208B
:1005A000091AA14214D0D3F808110131B1FBF2F2BB
:1005B000C2EB0222891AC3F80811D3F808211A44A1
:1005C0001079D3F80C21013AC0B2C3F80C2110BD48
:1005D0000020FCE72DE9F043D0F81C31D0F81811C9
:1005E0000133FF22B3FBF2F2C2EB02229B1A8B42D1
:1005F000ADF5097D04460BD01430FFF7C5FF232865
:10060000064609D184F8340204F23523C4F83433A1
:100610000DF5097DBDE8F083D4F8343304F54D724F
:100620009342F5D00A286DD113F8032C3B2A69D1E7
:1006300013F8022C3B2A65D113F8013C0D2B61D134
:1006400004F50D78334908AB01AA40460AF098FF3B
:10065000022855D101A948A8FFF734FF04F54F79C6
:10066000D4F840734D468FBBA94508D005F1100161
:1006700048A807F0FFFD35EA200528BF4D4648A8E9
:1006800007F0DCFDA9453BD0234B48AA03F1100C31
:1006900018685968174603C7083363453A46F7D1C7
:1006A0001B883B80EE2200210DF5997011F030FF80
:1006B00002A848A9FFF706FF6B6B05F1280093B964
:1006C0001649174840F23B2203F0F2F807F11000F8
:1006D00048A907F0CFFDD7E902230028AABF3D466D
:1006E0001F461746BFE71B6848AA08A998470D4947
:1006F000206948AB01AA01F02FFF02A807F09EFD78
:10070000C4F83483D4F834331E70D4F8343301334E
:100710007CE700BFCE790108057A0108D879010885
:10072000F7790108FC79010800F10803F7B50360C7
:10073000D1E900630F2B04460D4606EB0307019336
:1007400006D9002201A907F051FD019B2060A3609A
:1007500020683A46314607F079FD2346019A53F85E
:10076000180B6260002181541022184611F0D0FE4F
:100770006A6A1AB1526805F1180190476B6A6362A0
:10078000204603B0F0BD2DE9F041054638200E4665
:1007900003F03AFD05F1100104461030FFF7C4FFE5
:1007A0002B78E86823700023C4E90233666018B12F
:1007B0002146FFF7E8FFE060AE6827464FF00008EB
:1007C00016B92046BDE8F081382003F01DFD06F182
:1007D000100105461030FFF7A7FF33782B70C5E9ED
:1007E0000288BD606F60F06818B12946FFF7CBFF43
:1007F000E860B6682F46E3E72DE9FF4104460D4661
:1008000000211646DFF8CC80FFF77CFD2E4B2360DD
:100810002561FF2200250021FE27C4F8148004F181
:10082000180011F075FEC4F81851FF22C4F81C71AD
:100830002946C4F82051C4F8248104F5947011F0BD
:1008400067FE04F50D73C4F828522946C4F82C72CB
:100850004FF48072C4F83052184611F059FE04F576
:100860004F71C4E9D051C4F83403B06884F83C53E4
:10087000C4E9D215A0B1FFF786FF03461A469B686C
:10088000002BFBD1C4F8442303461A46DB68002B37
:10089000FBD17369C4F84823C4F84C33C4F840034F
:1008A0000A4B009300220A4B206903936946CDE965
:1008B000012401F04BFF039B13B19B6868469847E6
:1008C000204604B0BDE8F081307A01081505000823
:1008D000407A0108207A010843691A6803691A42BC
:1008E00016BFC26982691B041360704710B5034BC1
:1008F00003600446FFF710FD204610BD547A01083E
:1009000010B50446FFF7F2FF20462C2103F0A2FCAD
:10091000204610BD82B070B5064604AC84E80C00D9
:100920003446FFF7EFFC04AD084B44F8103B0FCD05
:100930000FC495E8070084E807003046B3693269C0
:100940001A60BDE8704002B0704700BF547A0108D9
:1009500010B5034B03600446FFF7DEFC204610BDD4
:10096000907A010810B50446FFF7F2FF20461821DF
:1009700003F070FC204610BD437B10B504466BB1FC
:10098000006903685B68984715F0D6FA02460B4683
:1009900060690349BDE8104001F0DEBD10BD00BF35
:1009A000647A010870B504461D461646FFF7AAFC96
:1009B000034B23600023C4E904656373204670BDC4
:1009C000907A010837B5002305461446084601AA67
:1009D0000A4901930AF0D4FD01280CD1019B084972
:1009E000002BD4BF002301236B73204603B0BDE866
:1009F000304012F0F3B80349F7E700BFC68301089F
:100A0000707A0108767A010807EE901A90ED087A5C
:100A1000B4EEE77AF1EE10FA09D890ED097AB4EE67
:100A2000E77AF1EE10FAACBF0120002070470020F9
:100A3000704700000000000010B50446084615F09D
:100A40007BFA09A3D3E9002315F0CEFA08A3D3E972
:100A5000002315F013F915F0BFFD0146201DBDE878
:100A6000104001F0DEBC00BF40BD19355F254F3F8F
:100A7000DD2406819543B33FF8B505461E460A4B73
:100A800045F8043B04461746284601F098FC2846E2
:100A900027626662142101F0A1FC2846034901F097
:100AA000C0FC2046F8BD00BFA87A0108AC1C9A3DE6
:100AB00010B5044B044640F8043B01F0CBFC204643
:100AC00010BD00BFA87A010807EE901A90ED167AC3
:100AD000B4EEE77AF1EE10FA09D890ED177AB4EE99
:100AE000E77AF1EE10FAACBF012000207047002039
:100AF000704707EE901AF5EEC07AF1EE10FA036A2D
:100B00000CD5C26A1B041360436CC26B1A60F0EE12
:100B1000E77A17EE901A043001F083BC826A136002
:100B2000C36B826C1B041360F1E7036AC26A1B0487
:100B30001360C36B826C1B0413600021043001F04E
:100B400070BC00002DE9F04105461E46144B45F8E7
:100B5000043B0446284617464FF01C0801F02FFCC2
:100B600004F1200342461846002111F0D1FC394619
:100B700002F0DBF904F13C0342461846002111F073
:100B8000C7FC314602F0D1F9069BA365079BE365DC
:100B90002846C82101F02FFC2046BDE8F08100BFA7
:100BA000B87A010810B5044B044640F8043B01F044
:100BB00051FC204610BD00BFB87A0108704710B53F
:100BC0000446006810B10368DB689847204610BDF2
:100BD000014B586A00B2704700080040014B0022E8
:100BE0005A6270470008004010B50421044603F023
:100BF00031FB204610BD0000184A136B43F002037E
:100C00001363174B196841F420411960596841F08A
:100C1000C0015960996841F470419960D96841F404
:100C20002041D960196A41F008511962596A596224
:100C3000136C43F0040313640A4B01221A6003226D
:100C40009A604FF2F1129A6111210022DA61196261
:100C50004FF6FF719A62D9625A62704700380240BB
:100C6000000402400008004038B5074D2B684BB91E
:100C7000042003F0C9FA054B03602860FFF7BCFFAE
:100C8000034B1860286838BD600A0020CC7A010840
:100C90005C0A0020024A0349034803F003B900BF7D
:100CA00098010020BF0B00085C0A0020002070475C
:100CB00010B50446406803681B689847237E20816E
:100CC0004BB115F027F902460B46D4E9040114F0A4
:100CD000D5FFC4E9040160680368BDE810405B68A3
:100CE0001847B0F908007047B0F9083007EE103A1D
:100CF000038C07EE903AB8EEC77AF8EEE77AC7EEC3
:100D0000276AD0ED077AC6EEA77A17EE900A7047E9
:100D100008B5D0E9040115F05FFC08BD00230022EE
:100D2000C0E9042301230376704700230022C0E9B1
:100D3000042300230376704713B50446FFF7B8FF7A
:100D4000B4F90830A06F07EE903A0368F8EEE77A3E
:100D500001A9CDED017A1B68984707EE900AFDEED8
:100D6000E77A17EE903A18B215F0D4F8C4E91C01EE
:100D700002B010BD08B5D0E91C0115F0E5FB00B2CA
:100D800008BDA0F16800FFF7F5BFD0B50446008CA0
:100D900015F0C0F802460B46D4E91C0115F04EFAD6
:100DA0000646E0690F4615F0C7F802460B46304686
:100DB000394615F043FA15F00FFCD0BDA0F16800DC
:100DC000FFF7E3BF034607C983E807007047704792
:100DD00010B4426881685410034601EB6200D207E8
:100DE00048BF0A591B685DF8044B48BFD3581847E1
:100DF000D0B504460B482384C4E900020026002233
:100E0000002722812276E161C4E9046702F090F8AC
:100E1000014604F1280001F043FD034BA362204684
:100E2000D0BD00BFF87A0108E47A010810B5044685
:100E3000FFF7DEFF034B23602C33A366029BA367FF
:100E4000204610BD1C7B010810B5034B036004460F
:100E5000FFF76CFA204610BDE47A010810B504468D
:100E6000FFF7F2FF2046402103F0F4F9204610BDC1
:100E700030B52DED028B012389B01822CDE9002376
:100E8000102290ED078A134D0290044600210DEBCD
:100E90000200039511F03CFB694604A8FFF792FF9E
:100EA000DFED0D7A079568EE277A17EE900A15F0B8
:100EB00013FC02460B4604F1280004A901F039FD99
:100EC00004A8FFF72AFA6846FFF727FA09B0BDEC35
:100ED000028B30BD507B01080024744903624FF43B
:100EE000206383844FF07C5383624FF03F43C3629F
:100EF000084B0363084B436310B5084B8363029BA5
:100F0000C363039B0364049B4364059B8364C0E940
:100F1000001210BD000020410000F0410000964387
:100F2000C0E902237047C0E9042300680368DB6856
:100F30001847D0E906017047406803685B681847A6
:100F4000F8B50446006803689B68984714F0F4FFFE
:100F5000D4E9044506460F460022002320462946D0
:100F600015F0D2FA30B132463B462046294615F0FC
:100F7000C1FA90B9002200232046294615F0A6FAAE
:100F800068B132463B462046294615F0A9FA0028AA
:100F900014BF01204FF0FF30F8BD0120FCE74FF0F7
:100FA000FF30F9E7006803681B6918472DE9F04135
:100FB000066A804614461D4666B11046194615F06D
:100FC0000BFB336801461B683046984714F0B4FFAA
:100FD00004460D46D8F82C0014F0AEFF22462B46EE
:100FE00006460F4615F090FA58B198F824300133B0
:100FF000DBB234463D4688F8243020462946BDE819
:10100000F081D8F8280014F097FF22462B460646B8
:101010000F4615F05BFA0028E7D10023EBE72DE936
:10102000F043044600682DED028B036883B05B68D3
:10103000984708EE100A206803685B699847D4ED6A
:101040000E7AF0EEC88AF4EEE87AF1EE10FA054670
:101050000CD500220023C4E90223C4E906234FF083
:10106000FF3003B0BDEC028BBDE8F083D4E9028908
:10107000206B29F0004714F05FFF42463B4646468E
:1010800015F042FA60B1D4ED0D7AF4EEE87AF1EEA3
:1010900010FA05DD00220023C4E906230120E0E761
:1010A000002D39D03046394615F096FA07EE900AF1
:1010B000666877EEC87A336817EE900A1F6814F0F6
:1010C0003BFFCDE9000169463046B84715F084FA88
:1010D00014F032FF02460B462046FFF767FF15F07B
:1010E0007BFA94F8242094F825309A4217D9B5EE6B
:1010F000408AF1EE10FA12D1606803685B68984785
:1011000000230022C4E90223C4E90623002384F853
:1011100024306FF00100A4E740464946C4E714F0CC
:101120000BFF06460F46C4E90667D4E90201002218
:10113000002315F0CBF90028B0D0002DAED007F178
:101140000043A661E361A9E770B514461D46064653
:10115000406C14F0F1FE22462B4615F0C1F948B15F
:10116000B06C14F0E9FE22462B4615F0C3F90038A6
:1011700018BF012070BD70B514461D460646C06BF1
:1011800014F0DAFE22462B4615F0AAF948B1306C6D
:1011900014F0D2FE22462B4615F0ACF9003818BFE9
:1011A000012070BD034607C983E8070070477047F8
:1011B00010B4426881685410034601EB6200D20704
:1011C00048BF0A591B685DF8044B48BFD3581847FD
:1011D00070B5037D022B04461DD0032B22D0012BBA
:1011E00014D1437D93B1806980B1FFF718FF421C91
:1011F0000DD12249606801F0AFF9A06803685B680F
:101200009847A069FFF798FE0223237570BD02304E
:1012100026D11B49EEE780690028F7D0BDE8704071
:10122000FFF78ABE80690028F0D0FFF7F8FE431C64
:1012300001D11449DEE7023001D11349DAE7A06990
:10124000FFF77EFE01300BD11049606801F084F990
:10125000A06803685B689847A069FFF7A3FED0E722
:10126000A568A0692B681E68FFF763FE15F0B4F946
:10127000334601462846BDE8704018475C7B0108AC
:101280008A7B01089F7B0108CD7B0108E27B010876
:1012900010B504460A48A360029BE360002363750F
:1012A000039BA361C4E90002216101F041FE0146F4
:1012B00004F1200001F0F4FA024B2362204610BD35
:1012C000EC7C0108E47A010837B504461546084667
:1012D00001AA26490AF054F9012845D1637D0199F4
:1012E0008BB19DED017ADFED227A67EE277A17EE5A
:1012F000900A14F021FE02460B46A069FFF724FF76
:1013000080B91C4905E0A06803689B68984730B91C
:101310001949284603B0BDE8304011F05FBC637D39
:10132000002BDED1237D032B02D1A069FFF73AFE0B
:1013300001232375637DDDED017A3BB9A068036865
:1013400017EE901A1B6898470C49E2E79FED087A60
:1013500067EE877A17EE900A14F0EEFD02460B4610
:10136000A069FFF7DDFDEFE70549D2E76C7C0108D6
:10137000000016431E7C0108FE7B0108707A0108FC
:10138000767A010837B504461546084601AA13497E
:101390000AF0F6F801281FD1E068019903685B683C
:1013A000984730B90E49284603B0BDE8304011F0E7
:1013B00015BCE068019903681B689847237D032BDF
:1013C00002D1A069FFF7EEFDA06802232375036830
:1013D0005B6898470349E6E70349E4E76C7C01084A
:1013E000407C0108707A0108767A010830B52DED4D
:1013F000028B83B004461546084601AB32496A4663
:101400000AF0BEF802285CD1637D43B92F49284613
:1014100003B0BDEC028BBDE8304011F0DFBBDFED67
:101420002C8ADDED017A67EEA87A17EE900A14F0A7
:1014300083FD02460B46A069FFF786FE08B92549E1
:10144000E5E79FED258ADDED007A67EE887A17EEF5
:10145000900A14F071FD02460B46A069FFF78BFE5F
:1014600008B91E49D3E79DED017AB5EEC07AF1EED9
:1014700010FA0AD5DDED007AF5EEC07AF1EE10FA39
:10148000C4BFF1EE677ACDED007A67EE287A0323C8
:1014900017EE900A237514F04FFD02460B46A06923
:1014A000FFF73EFDDDED007A67EE887A17EE900AD1
:1014B00014F042FD02460B46A069FFF734FD0849CF
:1014C000A5E70849A3E700BF697C01086F7C010814
:1014D000000016431E7C010860839748837C010846
:1014E000707A0108767A010837B505461446084631
:1014F00001AA0D490AF044F8012813D1E8680199BE
:1015000003685B68984730B90849204603B0BDE8D6
:10151000304011F063BBE868019903681B68984785
:101520000349F2E70349F0E76C7C0108407C0108BD
:10153000707A0108767A010837B50023044615460B
:10154000084601AA0F4901930AF01AF8012816D19A
:10155000A36933B90C49284603B0BDE8304011F007
:101560003DBB019BA068002BD4BF00230123637502
:101570000223237503685B6898470449EBE7044935
:10158000E9E700BFC68301089E7C0108707A010864
:10159000767A010830B52DED028B89B01022012337
:1015A00090ED048A144D0290044600210DEB0200D8
:1015B000CDE90013039510F0ABFF694604A8FFF7CF
:1015C000F1FDDFED0E7A079568EE277A17EE900AA7
:1015D00015F082F802460B4604F1200004A901F040
:1015E000A8F904A8FEF799FE6846FEF796FE09B032
:1015F000BDEC028B30BD00BFF07C010800247449B3
:10160000034607C983E8070070477047034607C9C8
:1016100083E8070070477047034607C983E807005F
:101620007047704770B4446885686610034605EBE0
:101630006400E40748BFAC591B6848BFE35870BC5E
:10164000184770B4446885686610034605EB64006B
:10165000E40748BFAC591B6848BFE35870BC184743
:1016600070B4446885686610034605EB6400E407BF
:1016700048BFAC591B6848BFE35870BC184700000E
:10168000D0ED056A9FED0F7AC0ED066A91ED006A14
:10169000D0ED025A80ED056AF0EE477AE6EE257A43
:1016A00090ED036AE6EE267AD0ED046A90ED016AC9
:1016B000A6EE267A77EEC77AC0ED047A17EE900A86
:1016C000704700BF0000000010B5034B03600446E4
:1016D00001F078F8204610BDDC7D0108D0B500F19E
:1016E0000C040430A0422DED028B234608EE101AA4
:1016F00025D1206814F020FC064618EE100A0F468B
:1017000014F01AFC02460B463046394614F06CFCC5
:10171000064660680F4614F00FFC02460B46304642
:10172000394614F0ABFA14F057FFBDEC028BD0BD74
:10173000D2ED007AF4EEC87AF1EE10FA06D5D0EDCB
:10174000007AF4EEC87AF1EE10FAD2DA02460430EA
:10175000984204F10804EBD1CBE7000010B5044B2C
:10176000044640F8203BFFF76FFB204610BD00BF4A
:10177000EC7C010810B5054B8366054B044640F828
:10178000283BFFF761FB204610BD00BF487B0108E6
:10179000F87A010838B505460024AB68A34200D8A2
:1017A00038BD6B6853F8240003689B689847013480
:1017B000F3E7000070B5164C164D174E20464FF457
:1017C000964100F016FF1549204600F0C5FE294657
:1017D000204600F0C1FE3146204600F0BDFE104913
:1017E000204600F0B9FE3146204600F0B5FE2946FD
:1017F000204600F0B1FE0B49204600F0ADFE0A483D
:10180000FFF736FB0948FFF7C5FE002070BD00BF9B
:10181000C8100020017D0108157D0108FC7C01082D
:10182000297D0108FE7C0108780F0020200E002091
:1018300038B5FFF7BFFF074D044618B92846FFF734
:10184000A9FFFBE702460449044800F085FE204654
:1018500038BD00BF680A00203D7D0108C810002087
:10186000C36810B504460BB19B689847204610BD6D
:1018700070B5044604B970BDE068FFF7F9FF04F1E4
:10188000100604F12800A568FFF7EAFF304606F0CD
:10189000D5FC2046382102F0DDFC2C46EAE710B5E5
:1018A00004468068FFF7E4FF204610BD30B50024F1
:1018B0000025C0E90045C0E90245C0E90445D1E979
:1018C0000045C0E90045D1E90245C0E90245D1E93A
:1018D0000445C0E9044530BDD1E90223C0E906232F
:1018E000D1E90423C0E90823D1E90023C0E90A2390
:1018F000704700002DE9F04FA7B013AB019312AB76
:10190000009306461746084611AB684910AA09F02D
:1019100037FE042840F0C880109814F00DFB804674
:101920001198894614F008FBCDE90201129814F0D1
:1019300003FBCDE90401139814F0FEFA04460D46AA
:1019400002460B464046494614F04EFBDDE90423AF
:1019500014F094F9D6E918ABCDE9060152465B467E
:101960002046294614F040FBDDE9022314F03CFB3D
:101970005246CDE908015B464046494614F034FB27
:101980002246CDE90A012B462046294614F076F975
:1019900022462B46CDE90C01DDE9060114F04EFC90
:1019A000DDE90A23CDE91401DDE9080114F066F947
:1019B000DDE90C23CDE90E014046494614F014FB45
:1019C00002460B46DDE90E0114F056F9DDE9042369
:1019D000804689461046194614F050F902460B46D7
:1019E0004046494614F048F922462B4614F026FC9E
:1019F0005246CDE916015B465046594614F0F4FABA
:101A0000DDE9022314F0F0FADDE9062314F036F9DB
:101A1000DDE9082314F030F9DDE90A2314F02CF98C
:101A200022462B4614F00AFC214B0022CDE91A2352
:101A3000CDE918015246DDE90C015B4614F01CF9B2
:101A400022462B4601F1004114F0F8FB5246CDE945
:101A50001C015B462046294614F00EF922462B460F
:101A600014F0ECFB0836CDE91E0114A920A8FFF7FD
:101A70001DFF20AC324626AD234603CBAB4210609F
:101A800051601C4602F10802F6D11AA920A8FFF7FE
:101A90000DFF20A93046FFF71FFF0649384627B043
:101AA000BDE8F04F11F09AB80349F7E7547D0108FB
:101AB0000000F03F707A0108767A010813B50DF145
:101AC000080C0CE90C00019B0260C0E90131024BDB
:101AD000C36002B010BD00BFB07D010838B50D462F
:101AE00010220021044610F013FDEB681BB15B6867
:101AF000294620469847EB68E360204638BD00F150
:101B00000803F7B50360044608460D46164613F071
:101B100017F90F2805EB0007019007D9002201A94A
:101B2000204606F063FB019B2060A36020683A46D4
:101B3000294606F095FB2046019B50F8182B636060
:101B40000021D1543146FFF7C9FF204603B0F0BD54
:101B5000F7B50546382002F057FB044604F1180398
:101B60002361D5E900630F2B00F1100006EB03079A
:101B7000019306D9002201A906F038FB019B2061E0
:101B8000A36120693A46314606F060FB019B226959
:101B900063610021D15404F1280005F11801FFF719
:101BA0009DFF204603B0F0BD2DE9F0410546103001
:101BB0000E46FFF7CDFF2B7803700023C0E90233F8
:101BC00046600446E86818B12146FFF7EDFFE06083
:101BD000AE6827464FF0000816B92046BDE8F081F0
:101BE00006F11000FFF7B4FF33780370C0E90288F4
:101BF000B86047600546F06818B12946FFF7D4FF82
:101C0000E860B6682F46E7E708B506F033FBC00F7B
:101C100008BD2DE9F0418D6804460F4690460E1D23
:101C2000012045B908B3FB68B34211D12560666055
:101C30002046BDE8F08105F110014046FFF7E4FFC2
:101C4000D5E9022300282E4614BF15461D46E8E7B5
:101C5000304606F0C7F90546414605F11000FFF78A
:101C6000D3FF20B100232360E1E73546F4E7C4E960
:101C70000050DDE7000000002DE9F04F2DED028B54
:101C80004FF41653FBB003220221B748DFF85893F4
:101C9000B64FDFF8588300F0EDFBB54AB549B248BE
:101CA00002F000F9B44B0193B44B00930A221523C0
:101CB0001321B348FEF746FFAD4AB249B04802F0DF
:101CC000F1F8B14BB14A272148460DF1D00AFEF791
:101CD000D3FEA74AAE49484602F0E4F81C22002190
:101CE000504610F015FC36AD0521504601F01DF9A7
:101CF0000FCD6C460FC42B6823609AE80C0041F2AC
:101D00008831A448A44CFEF705FE994AA349A1488E
:101D100002F0C8F8A24B2360A24B6360A24BA36001
:101D2000E36000233D6823616361A361FEF79CFFCC
:101D30004FF400630246294600949C489C4DFFF7EF
:101D400075F88B4A9B49994802F0ACF8864B974A44
:101D500064214046FEF726FE854A9749404602F038
:101D6000A1F80FCD2EAC0FC495E803002EAE84E889
:101D700003000FCE55460FC594E803008F4E904BDD
:101D8000336085E803008F4B7360D4468E4BB3609D
:101D9000BCE80F0006F10C040FC495E8030084E8CA
:101DA00003003868894C14F0C7F8CDE906012046D5
:101DB000874B40F8083B9FED5A8B1822002110F00A
:101DC000A7FB00220023C4E90823C4E90A23C4E9CD
:101DD0000E23C4E91023C4E91223C4E91423C4E97F
:101DE000162384ED0C8B50A3D3E90023DDE9060113
:101DF00014F0FAF84EA3D3E9002314F0F5F84EA33B
:101E0000D3E90023CDE90801DDE9060114F0ECF87F
:101E10004BA3D3E90023CDE90A01CDE922230246F1
:101E20000B46DDE9080113F029FF47A3D3E900239E
:101E300013F022FF46A3D3E9002313F01DFF3AA3BA
:101E4000D3E9002314F0FAF9DDE90623CDE92401F2
:101E50001046194614F0C8F835A3D3E9002314F04E
:101E6000C3F83DA3D3E9002313F008FFDDE90823FD
:101E700013F002FFDDE90A2313F0FEFE2AA3D3E9E3
:101E8000002314F0DBF9DDE90623CDE9260134A1B6
:101E9000D1E900018DED288B13F0EEFE22A3D3E9EA
:101EA000002301F1004114F0C9F9DDE90623CDE971
:101EB0002A011DA1D1E9000113F0DEFE1AA3D3E926
:101EC000002314F0BBF9CDE92C0122A95046FFF7FD
:101ED000EDFCD646BEE80F0004F1080CACE80F009C
:101EE00095E803008CE8030028A95046FFF7DEFCC4
:101EF00004F108005146FFF7EFFC364B0393364BD5
:101F0000364D0293364B0193364B284900932846B1
:101F100033462246FEF7E2FFCDE9009568E000BFB8
:101F2000000000000000F03F7B14AE47E17AA43FC0
:101F3000EC51B81E85EBE93F713D0AD7A370BD3F58
:101F4000946588635DDCBE3F4850FC1873D7823FC0
:101F50000188BB7A15193D3F882CD2C43BC0733F22
:101F60007B14AE47E17AB43FC8100020A8010020DE
:101F700098010020C91600089A99993E9A9999BE2D
:101F800068100020A50B00080000B8410000B8C18F
:101F9000B10A000814100020F80F0020ED08000816
:101FA000787D0108721C47BF398EE33D780F002011
:101FB000BC7D01087517000851090008380F002082
:101FC000847D0108D7FA62BED7FA623ED00E0020A7
:101FD000907D010800006143000061C3800E002075
:101FE00060839748608397C8401000205C0F0020F2
:101FF0008D4B39688D4A8E48FFF74AF98D4A8E49D4
:102000008B484FF0000901F04DFF8C4BCAF804904B
:10201000CAF800309AE80C00854928A8FFF74EFD61
:10202000874928AA5046FFF76AFD864B80491EAEB5
:10203000C6E9003922A896E80C00FFF73FFD824967
:1020400022AA3EA8FFF75BFD804B79491AAFC7E98A
:102050000039304697E80C00FFF730FD7C493246E6
:1020600048A8FFF74CFD7B4B714916ADC5E9003917
:10207000384695E80C00FFF721FD77493A4652A80B
:10208000FFF73DFD754B7649C5F80880C5E9003975
:10209000744BEB602A465CA8FFF731FD724B734925
:1020A0001494CDE9123912AA714B159366A8FFF763
:1020B00026FD704B704C5E490DF13008C8E90039BF
:1020C0000EA898E80C00FFF7F9FC6C490EAA70A85E
:1020D000FFF715FD231DC4E90333082384F804909A
:1020E000C4F80890C4F814900893D146089B013BAB
:1020F000089364D17AAC283C04F11800FFF7B0FBD8
:10210000204606F09BF85445F5D10EA8FFF7A8FB32
:1021100012A8FFF7A5FB2846FFF7A2FB3846FFF7FA
:102120009FFB3046FFF79CFB534C22A8FFF798FB20
:1021300028A8FFF795FB52493E4A204601F0B2FE1F
:10214000A068002335A9CAE903118AF80430CAF847
:102150000830CAF81430A0B1FFF726FD03461A462E
:102160009B68002BFBD1CAF80C2003461A46DB689B
:10217000002BFBD16369CAF81020CAF81430CAF8E2
:102180000800524629493F48FEF736FBDAF80800B6
:10219000FFF76EFB274A3C493A4801F083FE3B4B70
:1021A0003B493C480322FEF7F7F8224A3A493948AE
:1021B0007BB0BDEC028BBDE8F04F01F073BE6369EC
:1021C0006BB1D4F810B049460BF11000FFF71CFDBD
:1021D00028B1BBF1000F0DD109F1280986E74A4665
:1021E00021464046FFF715FDD8E9003BBBF1000F43
:1021F000F2D0ABB9294B9B4512D00BF110014846E8
:10220000FFF702FD06904846FFF7A2FC234B01466C
:102210005A46069805F000FF636901336361DBE706
:1022200001230693EFE700BF68100020C8100020CC
:10223000200E0020980100205D170008C912000838
:10224000617D0108E9140008637D01088513000819
:10225000657D01083915000885800108C509000859
:10226000677D0108A47D0108F5180008697D010853
:10227000987D0108ED130008080E00206B7D010811
:102280009F180008B80A00208D04000817B7D1383D
:102290009C010020680A0020510300080C0E002059
:1022A00010B50446FFF710FA2046B42101F0D2FF22
:1022B000204610BDD0E90E232DE9F047C0E91023D8
:1022C000D0E90C23C0E90E23D1E90023C0E90C2397
:1022D0008246064600F11807002400253146D1E960
:1022E0000023D1E90C0113F07FFE02460B46204685
:1022F000294613F0C3FC0836B74204460D46EDD11B
:10230000DAE90823DAE9140113F06EFEDAE912893A
:10231000DAE9062306460F464046494613F064FEB6
:102320000022002313F0AAFC02460B463046394631
:1023300013F0A4FC02460B462046294613F09CFCF1
:10234000DAE90A2313F07AFF02460B46CAE9148938
:10235000CAE91223BDE8F08708B50830FFF7AAFFE5
:1023600008BDF0B5002487B00025CDE90045CDE9D2
:102370000245CDE9044503466F4600F130060DF1F4
:10238000180C3A4603CA624530607160174606F180
:102390000806F6D1C3E91245C3E9144507B0F0BDFC
:1023A00008B50830FFF7DDFF08BDFFF765BCC3685F
:1023B00010B504460BB19B689847204610BD38B550
:1023C0000023037604460D4601F01CFB20462946F7
:1023D00005F02AF901F02CFB204638BD38B504463B
:1023E0000D4601F00FFB2946204605F0E1F9BDE856
:1023F000384001F01DBB38B504460D4601F002FB24
:102400002946204605F080F8BDE8384001F010BBB1
:10241000037E10B504461BB901F060FC012323764E
:1024200010BD38B504460D4601F0ECFA2046FFF722
:10243000EFFF2946204604F0E3FFBDE8384001F0F5
:10244000F7BA037E10B504461BB101F05DFC002312
:10245000237610BD10B5044601F0D4FA204604F0EE
:10246000C9FF2046FFF7EDFF01F0E2FA204610BD5C
:102470007047000010B5044600F000F9014B2360DE
:10248000204610BDDC7D010838B5036804461B6892
:102490009847204600F0D2F8236805465B6820463E
:1024A0009847284638BD38B5036804461B680D4672
:1024B00098472946204600F0C4F8236805465B6823
:1024C00020469847284638BD036870B51B680D46FE
:1024D00004469847013D15F8016F2EB92368204640
:1024E0005B689847304670BD31462046FFF7DBFFFA
:1024F000F1E72DE9F0410368A0B00E4617461B68CE
:10250000044698473B463246012101A80FF0ECFBF8
:102510007728054610DC31463A4602A80FF01CFC2D
:1025200002A92046FFF7D0FF236820465B68984742
:10253000284620B0BDE8F081013001F077FE3A4630
:10254000804631460FF008FC41462046FFF7BCFFAD
:10255000404601F081FEE7E70EB403B503AA52F846
:10256000041B0192FFF7C5FF02B05DF804EB03B056
:1025700070476FF01500704703681B6918470368C0
:102580009B69184703689B6A184700290CBF6FF0C6
:10259000180000207047012070476FF01500704749
:1025A0006FF015007047704770470246406830B4BE
:1025B00090B1D2E9034101F001052CB965B100EBFE
:1025C000610003681C5903E000EB6100002DF8D1A5
:1025D0002346916830BC184730BC704700EB0113AC
:1025E000D3F89C3023B109311B6800EB0110184768
:1025F000704770B50646044656F8443B0D461B68C6
:1026000098473046294605F0A3FA2368C4F8B0502D
:1026100020465B68BDE87040184738B5054604465B
:1026200055F8443B1B689847284605F043FA236851
:1026300005465B6820469847284638BD443004F07C
:102640008FBC10B544300C4604F09CFC204610BDF5
:10265000884238B504460D460ED0FDF75EFE1022C6
:10266000002120460FF054FFEB681BB15B68294640
:1026700020469847EB68E36038BD00002DE9F04F35
:102680009A4687B02E4B036000252E4B43601026E0
:102690000446C0E90355C0E905550191914685837B
:1026A00032462946806020300FF032FF04F14407A3
:1026B0003246294604F130000FF02AFF04F1900859
:1026C0002946A4F840504C2238460FF021FF04F16F
:1026D000A00B3246294640460FF01AFF32462946E3
:1026E00058460FF015FF32462946C4F8B0A002A89C
:1026F0000FF00EFF02A94046FFF7AAFF02A8FDF760
:102700000CFE3246294602A80FF002FF02A95846E5
:10271000FFF79EFF02A8FDF700FE4A4601993846E2
:1027200005F03CFAD4F8B010384605F011FA3846F6
:102730000549224604F0B8FB204607B0BDE8F08FFB
:10274000F47D0108AB250008DD2500082DE9FF41D7
:102750000646154656F8443B0F461B680446984704
:1027600001F050F92B012344FA68D3F89C3005F1AD
:102770000908AAB10BB901F0B1FA394604EB081007
:10278000FFF766FF01223046294604F099FB01F06D
:102790004FF923685B68204604B0BDE8F041184754
:1027A0000BB101F0B1FA1022002168460FF0B0FE23
:1027B000694604EB0810FFF74BFF6846FDF7ADFDD7
:1027C0000022E0E71FB51A4B0360044610220021E7
:1027D00068460FF09DFE002269462046FFF7B6FFCF
:1027E0006846FDF79AFD1022002168460FF090FE22
:1027F000012269462046FFF7A9FF6846FDF78DFDD7
:1028000004F1A000FDF789FD04F19000FDF785FDBE
:1028100004F13000FFF7CBFD04F12000FFF7C7FD06
:10282000A06908B100F00CFF204604B010BD00BF45
:10283000F47D010810B50446FFF7C4FF2046B4211B
:1028400001F008FD204610BD70B5D0E90813D0E9AD
:1028500002250446521845EB030300F015F9636B9B
:102860002BB104F128001B68BDE87040184770BD0B
:1028700010B5044600F0DAF8084B2360002200236C
:10288000C4E908230021102204F128000FF040FEC3
:10289000012384F83830204610BD00BF0C7E0108AB
:1028A00038B504460D4600F0D9F80A4B23600022E3
:1028B0000023C4E908230021102204F128000FF0AE
:1028C00027FE2B6893F8203083F0010384F838301A
:1028D000204638BD0C7E010870B5044615461E46DC
:1028E00001F090F8204600F0D9F8C4E90856A06934
:1028F00000F037FE421946EB0103204600F0C4F811
:10290000BDE8704001F094B8884238B504460D46E1
:102910000ED0FDF702FD1022002120460FF0F8FD39
:10292000EB681BB15B68294620469847EB68E3607B
:1029300038BDF8B504461D460F46164601F062F84C
:10294000636B23B994F838300BB101F0C7F93946FD
:1029500004F12800FFF7D8FF32462B462046FFF748
:10296000BBFFBDE8F84001F063B81FB5044601F0B5
:1029700049F8204600F092F8636B23B194F83830A0
:102980000BB101F0C1F91022002168460FF0C0FD23
:10299000694604F12800FFF7B7FF6846FDF7BDFC64
:1029A00004B0BDE8104001F043B8000010B5034B7F
:1029B00003600446FDF7BAFC204610BD207E0108E6
:1029C00010B50446FFF7F2FF2046402101F042FC1B
:1029D000204610BD1FB504461022002168460FF0A6
:1029E00097FD636B23B15B6804F128016846984743
:1029F000636B03932046FFF7B8FF039B2BB907498E
:102A0000074840F23B2200F053FF1B686846984796
:102A10006846FDF782FC04B010BD00BFD8790108FC
:102A2000F779010803689B6818470000094B10B547
:102A3000002203600023C0E902230023C0E904331D
:102A4000044600F0A1FD0449A06100F0FFFC20460F
:102A500010BD00BF347E0108252A000810B50446C9
:102A6000074B236000220023C4E902230023084609
:102A7000A161C4E90433034900F0E8FC204610BD1D
:102A8000347E0108252A000807B5009000F10801EE
:102A9000806900F019FD03B05DF804FB00F1080146
:102AA000806900F043BD000010B5034B036004468D
:102AB000FFF7F4FF204610BD347E010803680122B1
:102AC0001B6900211847036800221B69114618473B
:102AD000034607C983E807007047704710B442688F
:102AE00081685410034601EB6200D20748BF0A59BF
:102AF0001B685DF8044B48BFD358184738B50446E7
:102B00000D4600F07FFF94F857302BB994F85630FB
:102B100013B994F854307BB104F10800FFF725FF96
:102B2000002384F85530A4F856300DB12046A8474C
:102B3000BDE8384000F07CBFA36CDB689847F7E73E
:102B400010B5044600F05EFFA36C9B689847BDE893
:102B5000104000F06DBF10B5044600F053FFA36CA9
:102B6000DB689847BDE8104000F062BF10B504462E
:102B700000F048FF012384F85730A36C5B69984745
:102B8000BDE8104000F054BF10B5044600F03AFF15
:102B9000A36CDB699847044600F04AFF204610BD4D
:102BA00038B5044600F02BFF20B914491448C2225E
:102BB00000F07EFE04F10800FFF7D7FE0023C4E911
:102BC000173384F85530A4F856306366A36C01259A
:102BD00084F85850DB699847436802681F2B9ABFF6
:102BE0009D4005F1FF354FF0FF3502F5742303F2E8
:102BF0003F23A566B3FBF2F3E36638BD407E0108D0
:102C0000697E0108F8B504460E46083017461D4691
:102C1000FFF72EFE0B4BA3603368A364069B0133C2
:102C200023650135002384F85430E56400F0EAFEA2
:102C30007368636020462760FFF7B2FF00F0F8FE7C
:102C40002046F8BD207E010810B5044600F0DAFEEB
:102C50002046FFF7A5FFA36C1B689847BDE810400E
:102C600000F0E6BE10B5044600F0CCFE2046FFF7AB
:102C700097FFA36C9B699847BDE8104000F0D8BE51
:102C800038B504460D4600F0BAFE20B909490A4895
:102C9000F02200F00DFE94F856304BB1D4E9172025
:102CA000904205D0294600F0B1FA031E18BF012357
:102CB000184638BD407E0108697E010838B50446D3
:102CC00000F0A0FEA36C5B68984794F8543005466A
:102CD0003BB901462046FFF7D3FF10B1A36C5B69F7
:102CE000984700F0A5FE284638BD000038B50546D7
:102CF0000C4600F084FE20B904490548FC2200F08F
:102D0000D7FDE86E6043043038BD00BF407E010847
:102D1000697E01087FB504460D4600F070FE28B9B3
:102D2000334934484FF4827200F0C2FD94F85830B1
:102D3000A26E43B9636EE16CEB1A13408B4224BF61
:102D4000012384F85830E06D236D451B154094F83D
:102D50005820F2B994F85560CEB9274A02949D42A2
:102D6000CDE900262946254A039228BF1946204668
:102D7000FFF7BCFF33460246694604F10800FFF73F
:102D8000D8FD6846FDF7C9FA012384F8553004B030
:102D900070BD9D422AD3A36C1B699847A36C5B68E6
:102DA00098470023E16D84F85830A36E6066091AD5
:102DB00019408D4205D2A36C5B6904B0BDE8704038
:102DC0001847236D8B42E2D9236D0B4A009299423A
:102DD0000A4A03924FF0000528BF19462046CDE964
:102DE0000154FFF783FF2B460246C5E72946EBE770
:102DF000407E0108697E0108452E00088C7E01088E
:102E000038B504460D4600F0FDFDA36C5B6898479D
:102E1000012384F8563094F85430C4E91750014621
:102E200033B92046FFF776FFBDE8384000F000BE1A
:102E3000A36C28461B699847236E6366002384F8B9
:102E40005830F1E738B5044600F0DCFD002384F883
:102E50005530A36C5B6898470546D4E9172090422B
:102E600006D1A36C5B699847BDE8384000F0E0BD2F
:102E7000294600F0CBF90028F3D129462046FFF778
:102E800049FFF1E7EFF3108372B6054A117831B9C3
:102E90000449DB4303F001030B70012313707047F7
:102EA0007C1100207D11002008B5EFF31083DB4377
:102EB00013F0010304D006490648362200F0F8FC5E
:102EC000054A1370054B1B7803B162B608BD00BFFD
:102ED000987E0108C37E01087C1100207D1100202E
:102EE000014B1878704700BF7C110020F8B50F46E1
:102EF000044615461E4604F0EBF8013710D0206852
:102F00005EB1A36818600121204604F005F9294646
:102F10002046BDE8F84004F0FBB8E3680004F1E7A0
:102F2000F8BD13460022FFF7E1BF0022FFF7F9BF0B
:102F3000014800F051B800BFE07E0108014B18685D
:102F400000F034B8AC010020014B1868FFF71CBE3C
:102F500038120020014B1868FFF784BE3812002099
:102F6000014B1868FFF702BE38120020024B0146E1
:102F70001868FFF745BF00BF38120020014B1868E2
:102F8000FFF7E9BD38120020014B1868FFF7D8BDE4
:102F900038120020014B1868FFF790BE381200204D
:102FA000014B1868FFF750BE3812002010B50446D8
:102FB00000F028FD064B1B780BB9FFF7B9FF054B56
:102FC00021461868FFF79AFDBDE8104000F030BDBB
:102FD000C0110020381200202DE9F3410C4F0D4E96
:102FE000054600F00FFD3B7863B9DFF830800A4AF0
:102FF00001240094234629464046FFF703FEC6F805
:1030000000803C7000F014FD306802B0BDE8F08133
:10301000C0110020381200200C7F0108C8110020C8
:1030200013B50446601C0FD102B010BDA3420AD1F3
:103030002046896804F0EAF80021204602B0BDE885
:10304000104004F077B90C31B1F900305A1CEDD1C1
:103050000023034903480093224600F025FE00BFE9
:10306000307F01083001018007B502468A420846D8
:103070000AD0531C08D0013005D00023044905486C
:10308000009300F011FE104603B05DF804FB00BF92
:10309000417F010830010180B1F900305A1C01D193
:1030A00018467047834201D1486870470C31F3E7F6
:1030B000421C13B504460AD0FFF7EEFF431C06D1AD
:1030C0000023044904480093224600F0EDFD02B0BD
:1030D00010BD00BF527F010830010180B1F90030FE
:1030E0005A1C01D118467047834201D18868704745
:1030F0000C31F3E7421C13B504460AD0FFF7EEFF8C
:10310000431C06D10023044904480093224600F0E2
:10311000CBFD02B010BD00BF727F010830010180FD
:103120002DE9F843456895F83A600446002E49D1E8
:1031300003685B68984763681B6A834242D02C6AC5
:10314000AF682862041B3048EB68874204EA030436
:1031500031D095F83B30D5E90A98A4FB0001D3B3F0
:10316000C3F1200620FA03F401FA06F6A3F12002C7
:1031700021FA02F23443144321FA03F6A3F1200E9C
:10318000C3F1200C06FA03F204FA0EFE19EB00005C
:1031900004FA03F342EA0E0224FA0CFC48EB0101A4
:1031A00042EA0C02C01A61EB0201B84271F100035D
:1031B0000AD2C5E90A01D5E90C321B1946EB020611
:1031C000C5E90C36BDE8F883013446F10006C01BA2
:1031D00061F10001EDE733463A4613F04DFA12EB88
:1031E000090248EB0303BA42044673F100000E469D
:1031F00002D2C5E90A23DEE7013441F10006D21B01
:1032000063F10003F5E700BF40420F00824206D998
:103210008A420BD9884294BF00200120704788421F
:1032200006D98A428CBF00200120704701207047D8
:10323000002070472DE9F041466896F83A3005467F
:10324000002B67D196F83930002B63D1FFF768FF68
:103250006F687A68002A5FD0D7E90C10D2E9003293
:10326000994270EB020404D32B68BDE8F0415B691E
:1032700018475B1A62EB0002D7E9060198429141B8
:103280003C6906D3B968294881420FD19C4228BFC6
:103290001C463B6A1C44FB681C40336AA3422BD18A
:1032A0002349244840F21B1200F002FB97F83B0030
:1032B000D8B1A0F1200EC0F1200C02FA00F103FAFF
:1032C0000EFE23FA0CFC03FA00F01B4B41EA0E0140
:1032D00041EA0C01C01841F10001144A002313F027
:1032E000CBF9844228BF0446D3E7A1FB033001FB9E
:1032F000020111481818EEE72B6820461B69984711
:103300002B685B68984722460146306AFFF77EFFCC
:103310000028A9D1BDE8F0813369306AF268184409
:103320002B681040BDE8F0411B69184740420F0070
:10333000907F0108B17F01083F420F002DE9F04F57
:10334000436893F8382085B00446002A70D193F87A
:103350003A30002B6CD103681B6898472368DB69FF
:103360009847D0F800A0BAF1000F1CD0BAF1004F76
:1033700023D04FF01E080122B8F1000F07D002FA47
:1033800008F5AA4508F1FF3115D15FFA88F84768BA
:103390003B1F1C2B4FF0000612D9274927480096E7
:1033A0003346324605E026492648CDF800A053466C
:1033B000524600F079FC8846DEE74FF01F08E6E74A
:1033C0001AF1FF30204D4FF0070946F1FF3109FA9D
:1033D00003F952463346C9FB050113F04DF9656800
:1033E00022680390C5E9006652688B469047012227
:1033F000039B286202FA07F7656800210020013F5D
:10340000C5E90A01C5E90C01C5E903792046C5E90A
:10341000063BC5F808A085F83B802A8785F83A6006
:10342000FFF77EFE204605B0BDE8F04FFFF702BF74
:1034300005B0BDE8F08F00BFEE7F010805010480F4
:10344000D57F01080E01048040420F0038B50546C3
:103450000C46FFF773FF00F0D5FA6B681C60BDE8FF
:10346000384000F0E5BA70B5044600F0CBFA2368A6
:10347000DB689847636893F83A201AB1BDE870405A
:1034800000F0D6BA012283F8392063685B689BB1EB
:103490002046FFF745FE63685A68D3E90C61D2E91C
:1034A0000050AE42814107D3D16859601B68002BA0
:1034B000EBD090689847E8E76368002283F83920EA
:1034C0002046FFF7B7FED9E72DE9F34105460C4644
:1034D0001E461746DDF8208000F094FA2846FFF7D4
:1034E0001FFE6B68C4F80880C4E9007659680020A4
:1034F00031B9E16078B95C602846FFF79BFE10E0C7
:103500004A6801920A689742019A76EB0202F0D368
:103510000846C968ECE7D3E90C23BA42B341C4605A
:10352000EAD202B0BDE8F04100F082BA38B50546F3
:103530000C4600F067FA6A685368A34209D1DB6859
:1035400053602846FFF776FEBDE8384000F070BAB9
:103550001346002BF8D0DA68A242F9D1E268DA60AB
:10356000F2E738B50446FFF7E9FE00F04BFA2046D3
:10357000FFF7D6FD6368D3E90C4500F059FA204601
:10358000294638BD70470000004870472C8001086C
:10359000024B1B680BB1024818477047B00100206E
:1035A0002C80010808B5BFF35F8F1D4BD3F8901036
:1035B000080A10F0FC0FC1F3072104D119491A4879
:1035C0003A2200F075F90022C3F8942010468A428E
:1035D0001FD11022C3F89C20144AC3F8A020132244
:1035E000C3F89C20124AC3F8A0201122C3F89C20E3
:1035F000104AC3F8A020104AC3F89C200F4AC3F811
:10360000A0200722C3F89420BFF34F8FBFF36F8F22
:1036100008BDC3F89820C3F8A0000132D7E700BF67
:1036200000ED00E0588001087A80010839F00206B8
:10363000390702133FF50B13120000803900021303
:10364000024B1B6803B11847704700BF801200206F
:10365000002070474FF0100300F00CB84FF020032B
:1036600000F008B84FF0300300F004B84FF040030A
:1036700000F000B8EFF308804FF0040172460A42F0
:1036800001D0EFF309809C46254B196802680A6057
:10369000043142680A60043182680A600431C268F9
:1036A0000A600431F0C147460F6004314F460F6095
:1036B000043157460F6004315F460F6004310269E0
:1036C0000A60083142690A60043182690A60043183
:1036D000C2690A600431034620334FF40076324257
:1036E00000D0043375464FF01006354200D1483300
:1036F0000C46103C2360EFF309820A600431EFF3BB
:1037000008820A60043172460A600431EFF31482C1
:103710000A606046024B196800F07AF8FEE7000084
:1037200044820108F0B52C4E2C4F85B0002435465C
:10373000214656F8042B3846013400F047F90D2C89
:10374000F6D1AB6C02936B6C01932B6C244C009301
:10375000D5E90E23696B234800F038F92168224827
:1037600000F034F9E16AA26AA36AA06A266BE76BEB
:10377000000CCDE901670090C3F307231B48D2B2C8
:1037800000F024F9A36A1E0603D5616B184800F007
:103790001DF9A36A180403D5A16B164800F016F9A9
:1037A000EB6C190712D5144800F010F92B6DDA07ED
:1037B0000FD5124800F00AF9EB6C5B074CBF1048BC
:1037C000104805B0BDE8F04000F000B90E4800F028
:1037D000FDF80E48EEE700BF841200208780010844
:1037E00000ED00E095800108E4800108F280010806
:1037F000418101084F8101085D8101086C81010848
:103800009C810108A88101088C8101087981010847
:1038100013B50446154800F0D9F8302C17D0402CC9
:103820001AD0202C1DD11248124C00F0CFF81248AB
:1038300000F0CCF8FFF776FF104800F0C7F8104A08
:10384000104900230093D26B204600F02DFA0E4859
:103850000E4C00F0BBF8EAE70D480E4C00F0B6F84D
:10386000E5E70D480D4C00F0B1F8E0E7B481010840
:10387000DD8101083E01FF800A82010815820108EE
:103880008412002034820108EC8101083F01FF808E
:10389000F58101084001FF80008201083D01FF80A1
:1038A0000EF086BA05F088BD06F08ABF0FF018BF8B
:1038B00007B50B46009201460022014800F0F4F9DA
:1038C0004401FF8003460122D3E84F0FC3E8412F94
:1038D000C0B20029F8D17047D0E85F3F5B18C0E85C
:1038E000523F002AF8D198B27047D0E85F3F5B1A88
:1038F000C0E8523F002AF8D198B27047D0E84F3F55
:10390000C0E8421FD8B2704700B589B000F07AF81D
:10391000052101A8FFF709FB114E124D0424039B5A
:10392000019A1A60304600F099FC019B049A1B042E
:103930001360304600F092FC013CF0D10424039B5C
:10394000019A1A60284600F089FC019B049A1B0426
:103950001360284600F082FC013CF0D1DEE700BF96
:10396000F0490200801A060010B501460446002204
:10397000022000F03DFB00F045F8204611F0E0F990
:1039800021460246022000F033FBBDE8104000F063
:103990004FB8000000B5A3B002460B4601A8842131
:1039A0000EF0A2F9832806D9074B1A681B79CDF8C7
:1039B00083208DF88730002802DD01A8FFF7D4FFAF
:1039C00023B05DF804FB00BF488201080FB407B5BF
:1039D00004A951F8040B0191FFF7DCFF03B05DF877
:1039E00004EB04B07047EFF31080C04300F0010017
:1039F0007047EFF30580003818BF01207047FFF7CC
:103A00006FBA000008B5FFF73DFA064A1368591C63
:103A100004D1054905483F22FFF74AFF01331360EF
:103A200008BD00BFD81200204D820108788201082D
:103A3000044A136823B1013B13600BB9FFF734BA92
:103A4000704700BFD812002008B50B48FFF73AFFB7
:103A500028B1FFF7D7FFBFF34F8F20BFFDE7FFF778
:103A6000C8FF08B1FFF750FFFFF7BDFF0028F9D0EE
:103A7000012000F0A5FB00BF4C130020F0B5214B46
:103A80008FB016461C2210EA200738BF1F460D468D
:103A90000DEB020000210EF03BFD1B4B03955B6913
:103AA0000493DA6B05925A6B1B6B069201ACCDE95D
:103AB0000734CDE90176FFF7A5FF144A13680133F7
:103AC000012B136009D126460FCE114D0FC50FCE25
:103AD0000FC50FCE0FC533682B600FCC0D4D0FC532
:103AE0000FCC0FC50FCC0FC523682B600A4B1B688A
:103AF00013B1A5F130009847FFF79AFF00200FB0EF
:103B0000F0BD00BF0101FF80BC020020481300206F
:103B100014130020E0120020DC1200202DE9FF41E8
:103B2000374C0E462168C1F34173032B0CBF4D4245
:103B30008DB2C1F307438046174632482A46FFF745
:103B400045FF6FF498731D44132D0FD8DFE805F07F
:103B50000A3E4144474D4A500E0E0E0E0E0E0E0EFA
:103B60000E0E0E53A1682848FFF730FF4046FFF7BE
:103B7000FBFE61682548FFF729FF4EB12448FFF797
:103B8000F3FE3046FFF7F0FE22483946FFF71EFFEE
:103B9000A1682148FFF71AFFE268E36951680293C0
:103BA000A369019363691D480093002908BF01467A
:103BB00023691B48FFF70AFF21681A48FFF706FF31
:103BC000194804B0BDE8F041FFF700BFA1681748ED
:103BD000CAE7A1681648C7E7A1681648C4E7A16804
:103BE0001548C1E7A1681548BEE7A1681448BBE7BE
:103BF000A1681448B8E71448FFF7E8FEB6E700BF2D
:103C0000E0120020B382010804830108AC8301089C
:103C1000BD830108C5830108C9830108A982010881
:103C2000DD83010835840108848401081A830108B2
:103C30002A830108398301084C8301086083010845
:103C40007483010883830108998301080FB407B5C1
:103C50000D4801217546FFF751FE044688B901461B
:103C60002A460A48FFF70AFF094822462146FFF77D
:103C700055FF049805A90191FFF78CFE0548FFF751
:103C800073FEFFF7E1FE00BF4D1300200001FF802F
:103C90009E8401083282010800207047014B187889
:103CA000C0B270474D13002080B506460C460A4846
:103CB0000121F04617461D46FFF720FE48B942464F
:103CC00039463046FFF7DAFE029A29462046FFF7CA
:103CD00025FFFFF7B9FE00BF4D13002013B5074CB9
:103CE00001212046FFF7F8FD034628B900902288FD
:103CF00003490448FFF7D8FF02B010BD4E1300205F
:103D0000B38401082301048013B5094C0121204626
:103D1000FFF7EBFD4FF6FF73984206D100230093A7
:103D2000228804490448FFF7BFFF02B010BD00BF5E
:103D30004E130020D584010824010480034B188809
:103D400080B2B0FA80F04009704700BF4E130020E7
:103D500008B5FFF757FEFFF7F1FF28B103F0F8FFB2
:103D6000BDE80840FFF764BE03F0E6FFF8E76FF038
:103D70001C0070476FF0150070470120704700204D
:103D800070477047034B186818B14FF0FF3101F0CE
:103D900023BA7047F4130020024B186808B101F0F1
:103DA00033BA7047F4130020F8B5074F15460C4698
:103DB0008E18B44201D12846F8BD14F8011B3846CC
:103DC00003F0E0F8F5E700BF002C002038B511F053
:103DD00001040D4605D0084803F06CFE041E18BF10
:103DE0000124EB0605D5044803F07AFE08B144F03F
:103DF0001004204638BD00BF002C002010B504463A
:103E00000DF0CEFF204610BD10B510460C4622B175
:103E1000024803F0A5F82070012010BD002C0020FE
:103E200038B51D46074B0360074B1B68044633B982
:103E3000064803F0B3FE0548294603F089FE2046F4
:103E400038BD00BF3C8601084C2C0020002C00200F
:103E5000002070470020704707B50023024903483F
:103E600000931A46FFF720FFF3840108290101801F
:103E700008B5012000F0A4F9074A0849136818445E
:103E8000884289BF064B10600C224FF0FF308CBF78
:103E90001A601846704700BFB4010020007C012062
:103EA000FC2C0020012070470120704708B500F06D
:103EB00033FA08BD08B500F037FA08BD10B504465E
:103EC000037803F00303012B08D0FFF75BFF23788F
:103ED00003F00302012A03D1FFF75EFF002010BDAB
:103EE0002AB10549054840F2E652FFF7E1FC43F0EC
:103EF000020323700120F2E7FD8401082A850108EE
:103F000008B5037803F00302022A05D007490848E0
:103F100040F2EF52FFF7CCFC23F0030343F0010320
:103F20000370BDE80840FFF737BF00BFFD840108FC
:103F3000488501083F2870B504462DDC174E56F819
:103F400020305A1C26D1022824DCFFF783FF0346C9
:103F5000F0B92046FFF77CFF0346C8B9104D2B6827
:103F6000BFF35B8FDB0712D42846FFF7A7FF70B1C2
:103F70004FF41653032202210A48FFF751FF0A4A61
:103F80000A490848FFF78EFF2846FFF7B9FF054B9F
:103F900046F82430184670BD0023FBE7B801002026
:103FA000501300205413002098010020833D000886
:103FB00038B50446FFF7BEFF0B4B002543F82450ED
:103FC00030B907F0EBFC092303604FF0FF3038BD38
:103FD00003685B699847041E04DA07F0DFFC64425B
:103FE0000460F2E72846F2E7B8010020FFF7E0BFDF
:103FF00038B50C461546FFF79DFF38B907F0CEFCE3
:10400000092303604FF0FF34204638BD0368214682
:10401000DB682A469847041EF6DA07F0BFFC6442C4
:104020000460EFE773B505460E461446FFF7E1FC62
:1040300030B100230E490F4800932A46FFF734FEA3
:10404000FFF7D1FC0028F4D0201E07DA07F0A6FC09
:10405000162303604FF0FF3002B070BDFCD0024663
:1040600031462846FFF7C4FF40EAE070F4E700BF9E
:104070007F8501082F01018038B50C461546FFF7F2
:1040800059FF38B907F08AFC092303604FF0FF3469
:10409000204638BD036821469B682A469847041E7F
:1040A000F6DA07F07BFC64420460EFE773B5044680
:1040B0000E461546FFF79DFC30B100230D490E4812
:1040C00000932246FFF7F0FDFFF78DFC0028F4D0A7
:1040D000002D07DB2A463146204602B0BDE870407D
:1040E000FFF7CABF07F05AFC162303604FF0FF30FA
:1040F00002B070BDB98501082F01018010B5FFF72E
:1041000019FF30B907F04AFC092303600024204658
:1041100010BD0368DB699847041EF8DA07F03EFC1F
:1041200064420460F2E7FFF7E9BF38B50C46154674
:10413000FFF700FF38B907F031FC092303604FF0A7
:10414000FF34204638BD036821461B692A4698473C
:10415000041EF6DA07F022FC64420460EFE7FFF782
:10416000E4BF10B5FFF7E6FE30B907F017FC0923EE
:1041700003604FF0FF3010BD03689B699847041E31
:1041800004DA07F00BFC64420460F2E70020F2E777
:104190000A4D08B52B680446986810F0C1FB2B68DF
:1041A000D86810F0BDFB0120FFF7DBFF0220FFF70E
:1041B000D8FF0CB1FFF7A8FBFEE700BFEC0800201A
:1041C00008B5FFF7E5FF38B50D46FFF7B3FE044627
:1041D00030B907F0E3FB092303604FF0FF3038BD2F
:1041E0000368DB69984700280CBF4FF400434FF485
:1041F00000536B60236820469B6A98472861002023
:10420000EDE7FFF7E0BF000013B504460DF0C0FD79
:10421000034628B90090034903482246FFF744FDAE
:1042200002B010BDF58501081F01018013B50446D9
:104230000DF0AEFD034628B900900349034822461D
:10424000FFF732FD02B010BD128601081F01018088
:104250000DF0A6BD0DF0A4BD0DF0A2BD034A516A3C
:10426000536A5B1A8342FBD3704700BF000C0040C7
:1042700008B5094B094A1A60094B9B1A094A136091
:10428000094B0A4A1A600A4B9B1A0A4A136000F04B
:1042900051F800F07DF800BFC4130020007C01201D
:1042A00000800120C01300205C130020402E00205D
:1042B000007C0120581300200E4838B50E4B0360D7
:1042C0000B250E4B45601C24C460836000F06CFF1E
:1042D0000B4B18600B480C4BC460C0E900350B4B0E
:1042E000836000F061FF0A4B1860BDE838400EF0B3
:1042F00087B900BF9013002090860108A01300200A
:10430000BC130020601300209D860108701300205C
:104310008C130020FDF78CBA024B4FF0FF31186868
:1043200000F05ABFBC130020014B186800F06CBFAE
:10433000BC13002008B5FFF735F90C4B0C49986801
:104340004FF00053C21802F16042126843F8042B88
:104350008B42F7D1054B4FF000529A6002F01CFFE0
:1043600003F0CEFDBDE8084000F010B800ED00E01D
:1043700094010020704708B5FFF79EFFFFF7FAFF92
:10438000FFF78AFCBDE80840FFF7C4BF00F040BA61
:1043900007B51748174B03600B2343601C23164CCB
:1043A000C360164B8360164B23614FF480536361E7
:1043B0004423E360134BA3601823A361124B2360D3
:1043C00000F0F2FE114B224618600021104801F067
:1043D000FDFA034628B90F49009022460E48FFF720
:1043E00063FC00F02DFA00230C4900931A46F5E710
:1043F000C8130020A786010840240020D8130020FD
:1044000040140020F8130020B7860108F4130020A0
:1044100077430008BC8601081D010180D886010889
:1044200073B506460C461546FFF738FC58B90634F6
:104430002ABF064B064953F8241000230093324646
:104440002846FFF731FC02B070BD00BFA08801080C
:10445000F587010808B500F071F8000007B50023E2
:10446000411E009302460023042919D8DFE801F019
:1044700003080C1014000C490C480122FFF714FC2F
:104480000B490C480222F9E70B490C480322F5E7D7
:104490000B490C480422F1E70B490C480522EDE7D3
:1044A0000B490C48EAE700BFED86010825010280B0
:1044B0000E87010826010280338701082701028048
:1044C0006887010828010280A38701082A01028069
:1044D000E387010800010280014A0146FFF7A0BFFF
:1044E00031010180014AFFF79BBF00BF320101800B
:1044F000014AFFF795BF00BF33010180014AFFF772
:104500008FBF00BF3801018010B501F077FA034B6F
:104510001B6813B1BDE81040184710BD642400208B
:1045200008B5FFF76FFAFFF7D9FBFFF711FCFFF7AC
:10453000EBFBBDE80840FFF77BBA000008B5024C72
:1045400023689847FCE700BFB80200201EF0040F64
:104550000CBFEFF30880EFF30980816911F8021CAA
:1045600091BB01B590E80F10E047BDE800508CE822
:104570000300244B93E80600914208BF704741B9FD
:104580001EF0100F10D12049086820F001000860CB
:104590000AE02CE9F00F1EF0100F08BF2CED108A76
:1045A000C1F838C081F822E01A6092F82210906BAE
:1045B00061F0FF0E1EF0100F08BFB0EC108AB0E8DB
:1045C000F00F80F309887047104A13689942FAD8AF
:1045D00001B552F821C00FC8E047BDE80050CCF843
:1045E0000000704701B500F06DFEBDE80140EFF33B
:1045F000098CBEE701B500F02DFEBDE80140EFF3E8
:10460000098CB6E7D002002034EF00E0648901088D
:10461000EFF310832BB9EFF31180003818BF01209E
:10462000704701207047000070B5484C217A01297D
:1046300000F08A8031B14FF0FF30FFF74DFF4FF0AF
:10464000FF3070BD424D9C2204F108000DF060FF68
:10465000D5E90B61EB68E3652B8AA4F8543030464A
:10466000AB68236400F002F908B1C4F88060D5E9B2
:104670000561304600F0FAF808B9D4F88060666742
:10468000D5E90761304600F0F1F808B9D4F8806048
:10469000A667D5E90961304600F0E8F808B9D4F812
:1046A0008060E6676E6B3EB1D6E902233168304622
:1046B00000F046F9C4F88460AE6B3EB1D6E902233F
:1046C0003168304600F03CF9C4F88860EE6B3EB1CA
:1046D000D6E902233168304600F032F9C4F88C6024
:1046E0002E6C3EB1D6E902233168304600F028F93D
:1046F000C4F890606E6C3EB1D6E902233168304652
:1047000000F01EF9C4F89460AE6C3EB1D6E9022305
:104710003168304600F014F9C4F89860EE6C3EB190
:10472000D6E902233168304600F00AF9C4F89C60EB
:104730002D6D3DB1D5E902232968284600F000F926
:10474000C4F8A0500123237200207AE7BC020020A5
:10475000FC88010870B5284C237A012B07D06FF034
:104760000600FFF7B9FE4FF0FF35284670BD01F097
:104770000DF910B94FF0FF30F3E7204AFF2382F81C
:10478000223092F8223063F0FF03DB4304D1D26879
:10479000C2F30222531C08E0D268B3FA83F3C3F1D8
:1047A0002003C2F302229342F4D9FE2202FA03F359
:1047B000134E124A13497068DBB2D37701F096F9B1
:1047C00005460028D6D101F0C9F9206101F0AEF903
:1047D0000D4800F0B7FE00F017FF336813F0010F2B
:1047E0004FF0020303D083F314882372BDE7032242
:1047F00082F31488F9E700BFBC02002000ED00E05E
:10480000FC880108F5450008D80200207047000028
:1048100008B5FFF7FBFFEFF3058333B16FF0050039
:10482000FFF75AFE6FF0050008BDFFF7F1FE002804
:10483000F4D1DFF808C000DFF6E700BF2946000822
:1048400008B5EFF3058333B16FF00500FFF744FEC1
:104850006FF0050008BDFFF7DBFE0028F4D1DFF89C
:1048600008C000DFF6E700BF5547000810B5034653
:1048700088B1084310F007000DD117290AD9196033
:1048800008391022CC189C605A60585099684A60C8
:10489000D860012010BD0020FCE770B5034668B366
:1048A00061B3032A2AD80F3121F0070600F108046A
:1048B000214624684D68601A25F00305401B864296
:1048C00003D920680028F3D170BD5D6818683544AD
:1048D0005D600344083B5868854288BF5D604B6853
:1048E00032431BB94A6001F10800EDE723F00303EE
:1048F000C818CC50426008600830E5E70020E3E7C4
:1049000010B5034680B1C9B1A1F1080400F1080255
:104910000021A24209D1506820F003045868001B0E
:10492000586041B95160012010BD1068114600283F
:10493000FAD00246EDE713680B60F4E70846F3E7A8
:1049400030B5C0B189B1C2B1CBB10024C0E90142D8
:1049500002FB01F41D190160C36043610561184643
:10496000013904D1A41A19510121084630BD851816
:1049700005602846F4E70146F7E71146F5E71946D2
:10498000F3E710B5034608B9002010BD00F114028A
:1049900052E8000F10B9BFF32F8F04E0016842E81E
:1049A000001404B1F4E70028EED0043353E8002FDC
:1049B000511C43E8001404B1F8E7E6E730B5F0B164
:1049C000C3688B421BD803698B4218D900F11403CA
:1049D0001A680A60BFF35F8F53E8002F0C68944297
:1049E000F6D143E8001505B1F2E7043050E8003F86
:1049F0005A1E40E8002101B1F8E7002030BD6FF0F9
:104A00000300FBE7EFF310832BB9EFF311800038BD
:104A100018BF0120704701207047D1E9013223B14E
:104A20009A608A681AB153607047C262F9E70363FB
:104A3000704700002DE9F84F8846074600B141B99C
:104A40006FF003010020FFF759FD00242046BDE868
:104A5000F88FCE1C26F003060C36B0FA80F104D095
:104A6000B6FA86F30B441F2BEADD06FB07F9002A92
:104A70005DD09468D2F800A0D2E9045314B3A10722
:104A80001DD1D268332A1AD9002D34D1FBB99B46E7
:104A9000324B0022D86F4946FFF7FFFE054600283B
:104AA00054D1BBF1000F07D02C4BD3F8A000214606
:104AB000002846D0FFF782FF6FF00401C2E76FF0D5
:104AC0000801BFE7D268002AF9D11DB933B16FF0F0
:104AD0000901B7E7AA07FAD19945F8D81F4BD3F8CF
:104AE000A00038B3FFF74DFF04460028E4D04FF094
:104AF000010B2DB9CCE715F0030BE8D19945E6D8A9
:104B0000FA2323700023C4E90983C4E90B33A360AB
:104B100032462B4684F802B0C4F804A0394604F1AA
:104B20000C00FFF70DFF0D4B0D4A1A678EE79246FA
:104B30001546D3E7D3F8800001223421FFF7ADFEFC
:104B4000D2E7D3F88000FFF7DBFEB5E74A46002145
:104B50000DF0DEFC4BF0020BD2E700BFBC020020E0
:104B6000F14B000810B500F1280353E8002F12B9EB
:104B7000BFF32F8F04E0511E43E8001404B1F4E7A3
:104B80000AB9002010BDC06A01220028F9D0811C9A
:104B9000D1E84F3FC1E8442F04B1F9E7DBB2002B65
:104BA000F0D08068F1E7036B30B5E3B1CD78002435
:104BB000DA78AA420FD31A46C1E901248AB191607A
:104BC000A4B16160283050E8003F5A1C40E8002141
:104BD00001B1F8E730BD5A681C46002AECD01346F4
:104BE000E6E7C162ECE7C1E90133C1620163E9E7CD
:104BF000F8B5877804468FB3C56801460027284674
:104C0000FFF70BFF277005F10C042046FFF7D6FED7
:104C1000AB68002B48D02046FFF7B3FE04460028BF
:104C200042D0284600F08EFC3A460646394600F04F
:104C300021FD304600F0CAFC6A6A8168064604F12C
:104C40000C000FF0C5FFF9232370A770F368E37021
:104C500021462846BDE8F840FFF7A5BF8568AB6848
:104C6000002BF5D05B78832BF2D1284600F06AFC4C
:104C70003A460646394600F0FDFC304600F0A6FCF8
:104C800006466A6A806804F10C010FF0A1FFF36820
:104C90000BB1E2781A7000232370214605F10C0055
:104CA000BDE8F840FFF78ABEF8BD00002DE9F041ED
:104CB0000E4617469846044618B10378FA2B00D1E1
:104CC00041B920466FF00301FFF718FC6FF00300B5
:104CD000BDE8F0818368BBB15B78832B14D100F011
:104CE00031FC01220546002100F0C4FC284600F0FA
:104CF0006DFC0546626A806831460FF069FFEB681B
:104D000003B11F700020E3E704F10C00FFF739FE48
:104D1000054670B13146626A0C300FF059FFF92335
:104D20002B700023AB70EF7029462046FFF73BFF46
:104D3000E8E7B8F1000F11D04146932000F0B4FD30
:104D400010B96FF00100C3E7064B2046596900F027
:104D5000E7FBEFF30983C3E90267F2E76FF00200B4
:104D6000B6E700BFBC0200202DE9F0410F46164611
:104D70009846044618B10378FA2B00D141B9204671
:104D80006FF00301FFF7BAFB6FF00300BDE8F0819D
:104D9000FFF7E8FE054600283AD001462046FFF717
:104DA0003CFE626A05F10C0138460FF011FF0EB1AE
:104DB000EB783370002704F10C062F70294630463B
:104DC000FFF7FCFDA3680BB90020DFE73046FFF7D3
:104DD000D8FD05460028F7D0204600F0B3FB394641
:104DE0000646012200F046FC304600F0EFFB626A06
:104DF0008168064605F10C000FF0EAFEF9232B70DE
:104E0000AF70F368EB7029462046FFF7CCFEDBE776
:104E1000B8F1000F11D04146832000F045FD10B9D4
:104E20006FF00100B2E7064B2046596900F078FBAD
:104E3000EFF30983C3E90276F2E76FF00200A5E71A
:104E4000BC02002010B50446EFF3058333B1002007
:104E50006FF00501FFF752FB002010BDFFF7D2FDF8
:104E60000028F4D1DFF808C0204600DFF5E700BFD6
:104E7000354A00082DE9F04106460F4690461C468B
:104E8000EFF305834BB196B930466FF00301FFF79E
:104E900035FB6FF00300BDE8F081FFF7B3FD00289C
:104EA000F1D1DFF84CC03046234600DFF3E733781A
:104EB000FA2BE9D1002FE7D0002CE5D106F10C0048
:104EC000FFF75FFD054680B1726A39460C300FF07E
:104ED0007FFEF9232846C5E901762B70AC7085F872
:104EE000038000F037FA2046D5E76FF00200D2E7E2
:104EF000AD4C0008F8B504460F4616461D46EFF3C4
:104F0000058343B18CB920466FF00301FFF7F6FA31
:104F10006FF00300F8BDFFF775FD0028F2D1DFF850
:104F200048C020462B4600DFF4E72378FA2BEAD16D
:104F3000002FE8D0002DE6D12046FFF713FE0546EE
:104F400070B100F10C01626A38460FF041FE0EB1FB
:104F5000EB7833702846EC6000F0FCF90020D9E7CC
:104F60006FF00200D6E700BF694D0008EFF3108331
:104F70002BB9EFF31180003818BF012070470120D2
:104F80007047000038B5044640B3D0E9002580687A
:104F900060B110F0030302D1E1681B2927D86FF03C
:104FA00008010020FFF7A4FA002016E0E368002BB8
:104FB000F5D11446104BD3F8940088B1FFF7E1FC0B
:104FC000B8B1012383700023C0E90233C0E9043380
:104FD000F5220270C5704460037638BD0546E9E7E6
:104FE000D3F8800001221C21FFF757FCE8E71446A4
:104FF000E8E76FF00401D5E7BC020020294B70B54B
:105000005D6904460E4635B96FF00701FFF770FA87
:105010004FF0FF3070BD10B10378F52B07D020465C
:105020006FF00301FFF764FA6FF00300F2E7037E0D
:1050300053B9EA6AC560C0E9043202B11061EC629A
:10504000012323760020E5E7C278D1070ED5C16899
:10505000A9420BD1FF2B06D16FF00F01FFF748FAE1
:105060006FF00200D6E70133DBB2EAE7002EF7D09B
:1050700093070AD5E06895F9203090F920209A42EC
:1050800003DA80F8203000F06FFA3146532000F048
:105090000BFC10B96FF00100BCE72946204600F078
:1050A0003FFAF7E7BC02002038B52E4B5A69044698
:1050B00032B96FF00701FFF71BFA4FF0FF3038BD30
:1050C00010B10378F52B07D020466FF00301FFF7EE
:1050D0000FFA6FF00300F2E7037E33B96FF00E01B1
:1050E000FFF706FA6FF00200E9E7C168914202D0CB
:1050F0006FF00D01F4E7013BDBB203760BB100204A
:10510000DDE743690BB1016919612169F9B14B61AF
:10511000E3789B0705D592F92110D36ACBB982F8C1
:105120002010A3687BB1204600F00CFA002205464F
:10513000114600F09FFAEB6A6361002323610123AB
:10514000E560EC622376002000F068FAD7E7D362CE
:10515000DEE7986820B190F920008142B8BF01468F
:105160005B69DBE7BC0200202DE9F0410446002624
:1051700001270CB9BDE8F081E378D4F814801B074F
:1051800010D5A36826766BB1204600F0DBF900222B
:105190000546114600F06EFAEB6AE560C4E9046367
:1051A000EC6227764446E4E708B50246EFF3058350
:1051B00033B100206FF00501FFF79AF9002008BD18
:1051C000FFF7D4FE0028F4D1DFF808C0104600DF56
:1051D000F5E700BF854F000808B50246EFF30583E9
:1051E0003BB110466FF00501FFF782F96FF0050043
:1051F00008BDFFF7BBFE0028F3D1DFF808C010465A
:1052000000DFF5E7FD4F000808B50246EFF3058320
:105210003BB110466FF00501FFF76AF96FF005002A
:1052200008BDFFF7A3FE0028F3D1DFF808C0104641
:1052300000DFF5E7A950000810B5D0E85F3F5A1C21
:10524000914200D80022C0E8542F04B1F5E798B28B
:1052500010BD000038B51A4C00F07CFCE368013347
:10526000E360236D03B1984700F098F9002000F047
:10527000D5F9236C1BB3A26BA1698A4202D0A1634A
:10528000E3631CE0E36BB3B9237A022B17D1656AA1
:10529000ADB195F9201092F9203099420FD12846EE
:1052A00000F059F9A06B00F071F9284600F0ACF954
:1052B000236CA563E4E7013BE363002BE4D038BD36
:1052C000BC02002070B5224C04F1560504F15A06C8
:1052D000B4F85410D5E85F3F13B9BFF32F8F04E043
:1052E0005A1EC5E8502F00B1F4E79BB25BB33046BD
:1052F000FFF7A2FFE36D53F8200020B30378F13BE2
:10530000082BE5D801A252F823F000BF3153000862
:10531000D152000837530008D1520008D15200087A
:105320003B5300083F530008D15200084353000884
:10533000236E9847CCE7636EFBE7A36EF9E7E36E55
:10534000F7E7236FF5E7BDE87040002000F066B98D
:10535000BC02002070B5164C0546B4F8541004F198
:105360005602D2E85F3F994202D8BFF32F8F04E084
:10537000581CC2E8560F06B1F3E79BB2994205D814
:1053800029460220BDE87040FFF768B804F15800D4
:10539000FFF752FFE36D43F82050637A23B9054BC2
:1053A0004FF080525A6070BD0123A372FBE700BF2B
:1053B000BC02002000ED00E0EFF310832BB9EFF307
:1053C0001180003818BF012070470120704700008D
:1053D00010B50A4A90F9201001234370536A1C3219
:1053E0001BB193F920408C4205DCC0E90232906089
:1053F00003B1D86010BD1A469B68F1E7BC020020DB
:10540000014B5869704700BFBC02002010B5002353
:10541000038083789A07044608D513F0100F016BB8
:105420000E4B0FD0D3F88400FFF7C8FAA378DB0740
:1054300012D50A4BD3F88800214638B1BDE8104098
:10544000FFF7BCBA586FFFF75BFAEFE7BDE8104013
:10545000D3F88000FFF754BA10BD00BFBC02002093
:1054600008B5FFF751F8DFF810C000DF4FF0FF314B
:105470000020FFF737F8FEE72959000810B5C46986
:10548000621CD0E904310AD103B1596142691AB1F1
:1054900013610023436101E0064A136310BD1BB191
:1054A000DA6959612244DA614269002AF0D1014A7D
:1054B000D362F3E7BC020020930710B502F00104A9
:1054C00022D400F1280384B153E8000F00EA01025E
:1054D0008A4203D0BFF32F8F002005E020EA0102AB
:1054E00043E8002404B1EFE710BD53E8000F084281
:1054F00003D1BFF32F8F002005E020EA010243E82B
:10550000002404B1F1E7EFE7806A01EA00031CB16F
:10551000994218BF0020E7E7002B08BF0020E3E70F
:1055200010B591F9202083681BB193F92040944273
:1055300005DAC1E90230816003B1D96010BD1846B7
:105540009B68F1E70346806882689A6002B1D36085
:105550000023C3607047C2682AB18368936003B1B7
:10556000DA600023C360704710B5044664B1237845
:10557000F12B07D0FFF7EFFF01462046BDE81040B2
:10558000FFF7CEBFE468F1E710BD0000012301463C
:1055900043700148FFF7C4BFD802002038B50A4D58
:1055A000EC6A84B1E369013BE36163B92046FFF72C
:1055B000D2FFFFF7EBFF246924B1E369002BF5D09C
:1055C00000236361EC6238BDBC02002090F82230F9
:1055D000826B13F0100F14BF20206020104470471E
:1055E000074B596951B10B6B8A6B934203D21A680E
:1055F000044B9A4202D00120FEF730BF704700BF33
:10560000BC020020A52E5AE208B502234370024BCB
:105610009861FFF7E5FF08BDBC02002010B5144BF0
:1056200004461A7A5969A0B9022A1FD15C6AECB102
:1056300094F9202091F920309A4217DD2046FFF797
:105640008AFF0846FFF7C4FE2046BDE81040FFF77A
:10565000DBBF022A05D190F9202091F920309A422F
:10566000EFDC2046BDE81040FFF790BF10BD00BF43
:10567000BC02002038B505461446FFF7A7FF0160BD
:105680002846FFF7FBFE1CB1BDE83840FFF7C6BF58
:10569000BDE83840FFF77ABF10B54378332B044696
:1056A0000CD1416A90F82320FFF706FF014628B18C
:1056B00020460022BDE81040FFF7DCBF10BD00000F
:1056C0002DE9F74F8046019140B96FF00301FEF7D5
:1056D00009FF0024204603B0BDE8F08F002A00F047
:1056E000A58094689769D2E900ABD2E9045644B129
:1056F000A10702D1D368432B23D86FF00801002003
:10570000E5E7D368002BF8D1002D32D1002F3ED130
:105710001827002E41D15F4BD3F88800002800F0F5
:105720008B80FFF72EF90446002800F09F80002DA3
:1057300040F0A6804FF001094EB156480022314694
:1057400084E0B5B91FBB002E6BD1B9461827524A69
:105750005048566DD0F88420002A76D01046FFF7C6
:1057600010F90546002877D049F0100949F00203E6
:105770001CE06A0700D116B96FF00A01BFE7002FDD
:105780004FD07B1E372B08D96FF00B01B7E77B1E7C
:10579000372BF9D8002E46D0002516F00703EBD1A1
:1057A000472EE9D9002CB6D0002D62D0A37000237B
:1057B000C4E90233C4E90433C4E90633C4E9093354
:1057C000C4E90B35A6F1400340F2F1122B44C4E9C1
:1057D0000E382280314B84F803B07FB2FD22C4F82A
:1057E00004A084F8207084F82170628466632B60C2
:1057F000294B1B685B0745D4A36B34220021184654
:105800000CF086FE264A234BC0E90D284FF080722B
:10581000C263019A0262234A1A662046FFF7FEFE1F
:1058200058E71827B9E774B9354674E79246154624
:105830001827164693466EE7D3F8800001224421CC
:10584000FFF72BF86FE7B14681E73146406FFFF76E
:1058500024F80546002889D1B9F1000F06D00D4B78
:10586000D3F88800214630B1FFF7A8F86FF00401A3
:1058700045E7A94661E7D3F88000FFF741F8F5E76F
:10588000012393E726F00302443ACC21281D0CF0B3
:105890003FFEB1E7BC020020FC880108A52E5AE2B9
:1058A000615400089956000838B51D4C237A022B24
:1058B000024633D1606A98B163695A704A1C15D1A7
:1058C000226B00216AB94FF0FF30C3E90421D8618F
:1058D00051B10B611348FFF735FEFFF795FE01202C
:1058E00038BD11461269EDE72363F3E7E26A002051
:1058F00012B1D569A9420BD2C3E90420D96158B1CC
:105900000361002AE6D0D0695361401AD061E1E713
:105910001046491B1269EBE7E362F2E70020DFE77C
:10592000BC020020D802002038B5164D2B7A022B7D
:1059300027D16B6A2BB36C69E06AFFF715FCA0698D
:1059400018B100221146FFF795FEEFF309830E48C8
:10595000A363FFF7F7FDFFF757FE00236B61E378C2
:10596000DB0701D5A36923B12046BDE83840FFF726
:105970004DBD04226270E3606B6BA36003B1DC6019
:105980006C6338BDBC020020D802002038B50B4C37
:105990000B48A26D0B4D0021FFF792FE636EA862CB
:1059A0004BB1E26D08480021FFF78AFEA864003879
:1059B00018BF012038BD0120FCE700BFFC880108AA
:1059C00055440008BC020020B15A000810B5044636
:1059D000EFF3058333B100206FF00501FEF782FD80
:1059E000002010BDFFF7E8FC0028F4D1DFF808C064
:1059F000204600DFF5E700BFC156000808B5EFF309
:105A0000058313B1054B586908BDFFF7D5FC002885
:105A1000F8D1DFF80CC000DFF6E700BFBC020020C1
:105A20000154000830B50C4D6B6C002213B11C6999
:105A30008C420AD9C0E9022301611BB11C6998603C
:105A4000641A1C612AB1D06030BD1A46091BDB689C
:105A5000ECE76864F8E700BFBC02002070B5134DA6
:105A60006C6C04B32369013B236101262369D3B91C
:105A7000E3680BB1A2689A606B640023E86C1A4675
:105A800004F11801FFF7F6F918B121460320FEF7DB
:105A9000E5FCE378012B07D161692046FFF7C2FFDF
:105AA0006C6C002CE2D170BD6670F9E7BC0200207E
:105AB0000B4B0C4C07B51A6E586E0821FFF7C2F954
:105AC000094BE0642365E06C4FF0FF330022694628
:105AD000FFF710FA0028F6D1DDE900309847F2E729
